{
  "contractName": "DrugVerify",
  "abi": [
    {
      "inputs": [
        {
          "internalType": "string",
          "name": "",
          "type": "string"
        }
      ],
      "name": "description_by_name",
      "outputs": [
        {
          "internalType": "string",
          "name": "",
          "type": "string"
        }
      ],
      "stateMutability": "view",
      "type": "function",
      "constant": true
    },
    {
      "inputs": [
        {
          "internalType": "address",
          "name": "",
          "type": "address"
        },
        {
          "internalType": "uint256",
          "name": "",
          "type": "uint256"
        }
      ],
      "name": "distributer_drug_names",
      "outputs": [
        {
          "internalType": "string",
          "name": "",
          "type": "string"
        }
      ],
      "stateMutability": "view",
      "type": "function",
      "constant": true
    },
    {
      "inputs": [
        {
          "internalType": "address",
          "name": "",
          "type": "address"
        }
      ],
      "name": "drugs",
      "outputs": [
        {
          "internalType": "bool",
          "name": "drug_id",
          "type": "bool"
        },
        {
          "internalType": "string",
          "name": "drug_name",
          "type": "string"
        },
        {
          "internalType": "string",
          "name": "drug_info_json",
          "type": "string"
        },
        {
          "internalType": "string",
          "name": "drug_status",
          "type": "string"
        },
        {
          "internalType": "bool",
          "name": "isSold",
          "type": "bool"
        },
        {
          "internalType": "address",
          "name": "manfacturer",
          "type": "address"
        },
        {
          "internalType": "address",
          "name": "distributer",
          "type": "address"
        },
        {
          "internalType": "address",
          "name": "verifier",
          "type": "address"
        }
      ],
      "stateMutability": "view",
      "type": "function",
      "constant": true
    },
    {
      "inputs": [
        {
          "internalType": "address",
          "name": "",
          "type": "address"
        }
      ],
      "name": "no_dis_drugs_index",
      "outputs": [
        {
          "internalType": "uint256",
          "name": "",
          "type": "uint256"
        }
      ],
      "stateMutability": "view",
      "type": "function",
      "constant": true
    },
    {
      "inputs": [
        {
          "internalType": "address",
          "name": "",
          "type": "address"
        }
      ],
      "name": "no_verifier_drugs_index",
      "outputs": [
        {
          "internalType": "uint256",
          "name": "",
          "type": "uint256"
        }
      ],
      "stateMutability": "view",
      "type": "function",
      "constant": true
    },
    {
      "inputs": [
        {
          "internalType": "address",
          "name": "",
          "type": "address"
        },
        {
          "internalType": "uint256",
          "name": "",
          "type": "uint256"
        }
      ],
      "name": "verifier_drug_names",
      "outputs": [
        {
          "internalType": "string",
          "name": "",
          "type": "string"
        }
      ],
      "stateMutability": "view",
      "type": "function",
      "constant": true
    },
    {
      "inputs": [
        {
          "internalType": "string",
          "name": "name",
          "type": "string"
        },
        {
          "internalType": "string",
          "name": "info_json",
          "type": "string"
        },
        {
          "internalType": "uint256",
          "name": "quantity",
          "type": "uint256"
        }
      ],
      "name": "addDrug",
      "outputs": [],
      "stateMutability": "nonpayable",
      "type": "function"
    },
    {
      "inputs": [
        {
          "internalType": "string",
          "name": "name",
          "type": "string"
        }
      ],
      "name": "getDrugsListByName",
      "outputs": [
        {
          "internalType": "address[]",
          "name": "",
          "type": "address[]"
        }
      ],
      "stateMutability": "view",
      "type": "function",
      "constant": true
    },
    {
      "inputs": [
        {
          "internalType": "string",
          "name": "name",
          "type": "string"
        }
      ],
      "name": "getDrugDescriptionByName",
      "outputs": [
        {
          "internalType": "string",
          "name": "",
          "type": "string"
        }
      ],
      "stateMutability": "view",
      "type": "function",
      "constant": true
    },
    {
      "inputs": [],
      "name": "getAllDrugsAdded",
      "outputs": [
        {
          "internalType": "address[]",
          "name": "",
          "type": "address[]"
        }
      ],
      "stateMutability": "view",
      "type": "function",
      "constant": true
    },
    {
      "inputs": [],
      "name": "getDrugNamesList",
      "outputs": [
        {
          "internalType": "string[]",
          "name": "",
          "type": "string[]"
        }
      ],
      "stateMutability": "view",
      "type": "function",
      "constant": true
    },
    {
      "inputs": [
        {
          "internalType": "string",
          "name": "name",
          "type": "string"
        },
        {
          "internalType": "address",
          "name": "_distributer",
          "type": "address"
        }
      ],
      "name": "addDistributer",
      "outputs": [],
      "stateMutability": "nonpayable",
      "type": "function"
    },
    {
      "inputs": [],
      "name": "getDistributerList",
      "outputs": [
        {
          "components": [
            {
              "internalType": "string",
              "name": "name",
              "type": "string"
            },
            {
              "internalType": "address",
              "name": "distributer_address",
              "type": "address"
            },
            {
              "internalType": "bool",
              "name": "verified",
              "type": "bool"
            }
          ],
          "internalType": "struct DrugVerify.distributer[]",
          "name": "",
          "type": "tuple[]"
        }
      ],
      "stateMutability": "view",
      "type": "function",
      "constant": true
    },
    {
      "inputs": [
        {
          "components": [
            {
              "internalType": "string",
              "name": "drug_name",
              "type": "string"
            },
            {
              "internalType": "uint256",
              "name": "quantity",
              "type": "uint256"
            }
          ],
          "internalType": "struct DrugVerify.assignDrug[]",
          "name": "assigned_drugs",
          "type": "tuple[]"
        },
        {
          "internalType": "address",
          "name": "_distributer",
          "type": "address"
        }
      ],
      "name": "drugDispatchToDistributer",
      "outputs": [
        {
          "internalType": "string[]",
          "name": "",
          "type": "string[]"
        }
      ],
      "stateMutability": "nonpayable",
      "type": "function"
    },
    {
      "inputs": [
        {
          "internalType": "address",
          "name": "_distributer",
          "type": "address"
        }
      ],
      "name": "getDistributerDrugNames",
      "outputs": [
        {
          "internalType": "string[]",
          "name": "",
          "type": "string[]"
        }
      ],
      "stateMutability": "view",
      "type": "function",
      "constant": true
    },
    {
      "inputs": [
        {
          "internalType": "address",
          "name": "_distributer",
          "type": "address"
        },
        {
          "internalType": "string",
          "name": "name",
          "type": "string"
        }
      ],
      "name": "getDistributerDrugListByName",
      "outputs": [
        {
          "internalType": "address[]",
          "name": "",
          "type": "address[]"
        }
      ],
      "stateMutability": "view",
      "type": "function",
      "constant": true
    },
    {
      "inputs": [
        {
          "internalType": "string",
          "name": "name",
          "type": "string"
        },
        {
          "internalType": "address",
          "name": "_verifier",
          "type": "address"
        }
      ],
      "name": "addVerifier",
      "outputs": [],
      "stateMutability": "nonpayable",
      "type": "function"
    },
    {
      "inputs": [],
      "name": "getVerifierList",
      "outputs": [
        {
          "components": [
            {
              "internalType": "string",
              "name": "name",
              "type": "string"
            },
            {
              "internalType": "address",
              "name": "verifier_address",
              "type": "address"
            },
            {
              "internalType": "bool",
              "name": "verified",
              "type": "bool"
            }
          ],
          "internalType": "struct DrugVerify.verifier[]",
          "name": "",
          "type": "tuple[]"
        }
      ],
      "stateMutability": "view",
      "type": "function",
      "constant": true
    },
    {
      "inputs": [
        {
          "components": [
            {
              "internalType": "string",
              "name": "drug_name",
              "type": "string"
            },
            {
              "internalType": "uint256",
              "name": "quantity",
              "type": "uint256"
            }
          ],
          "internalType": "struct DrugVerify.assignDrug[]",
          "name": "assigned_drugs",
          "type": "tuple[]"
        },
        {
          "internalType": "address",
          "name": "_distributer",
          "type": "address"
        },
        {
          "internalType": "address",
          "name": "_verifier",
          "type": "address"
        }
      ],
      "name": "assignDrugToVerifier",
      "outputs": [
        {
          "internalType": "string[]",
          "name": "",
          "type": "string[]"
        }
      ],
      "stateMutability": "nonpayable",
      "type": "function"
    },
    {
      "inputs": [
        {
          "internalType": "address",
          "name": "_verifier",
          "type": "address"
        }
      ],
      "name": "getVerifierDrugNames",
      "outputs": [
        {
          "internalType": "string[]",
          "name": "",
          "type": "string[]"
        }
      ],
      "stateMutability": "view",
      "type": "function",
      "constant": true
    },
    {
      "inputs": [
        {
          "internalType": "address",
          "name": "_verifier",
          "type": "address"
        },
        {
          "internalType": "string",
          "name": "name",
          "type": "string"
        }
      ],
      "name": "getVerifierDrugListByName",
      "outputs": [
        {
          "internalType": "address[]",
          "name": "",
          "type": "address[]"
        }
      ],
      "stateMutability": "view",
      "type": "function",
      "constant": true
    }
  ],
  "bytecode": "0x608060405234801561001057600080fd5b50614435806100206000396000f3fe608060405234801561001057600080fd5b50600436106101375760003560e01c80638e08e9de116100b8578063b31e44ff1161007c578063b31e44ff1461038f578063be09a31a146103bf578063c46e3f04146103ef578063cb46dc9a1461041f578063eb0aaadc1461044f578063edd1fee01461047f57610137565b80638e08e9de146102b357806391c4fb82146102e357806398c4c1b6146102ff578063990f3ff51461032f578063a48c3f391461035f57610137565b8063317d9ea4116100ff578063317d9ea4146101fb57806363e5fabe1461022b57806369a0e1d31461025b57806376793c201461027957806376b503c31461029757610137565b806304ab38ee1461013c5780630a34f254146101585780631d9859cb1461018f5780632b5d12e1146101bf5780632f4f3fce146101dd575b600080fd5b610156600480360381019061015191906132a7565b6104af565b005b610172600480360381019061016d9190613303565b610591565b6040516101869897969594939291906133d9565b60405180910390f35b6101a960048036038101906101a4919061346c565b6107eb565b6040516101b69190613586565b60405180910390f35b6101c76108d5565b6040516101d49190613713565b60405180910390f35b6101e5610a37565b6040516101f29190613586565b60405180910390f35b6102156004803603810190610210919061346c565b610b01565b6040516102229190613586565b60405180910390f35b61024560048036038101906102409190613303565b610beb565b60405161025291906137f7565b60405180910390f35b610263610d03565b604051610270919061392b565b60405180910390f35b610281610e65565b60405161028e91906137f7565b60405180910390f35b6102b160048036038101906102ac91906132a7565b610f3e565b005b6102cd60048036038101906102c89190613983565b611020565b6040516102da91906139c3565b60405180910390f35b6102fd60048036038101906102f891906139e5565b6110d9565b005b61031960048036038101906103149190613a70565b611703565b60405161032691906139c3565b60405180910390f35b61034960048036038101906103449190613c15565b6117b3565b60405161035691906137f7565b60405180910390f35b61037960048036038101906103749190613a70565b612343565b60405161038691906139c3565b60405180910390f35b6103a960048036038101906103a49190613c84565b6123f9565b6040516103b691906137f7565b60405180910390f35b6103d960048036038101906103d49190613303565b612da0565b6040516103e69190613cef565b60405180910390f35b61040960048036038101906104049190613a70565b612db8565b6040516104169190613586565b60405180910390f35b61043960048036038101906104349190613303565b612e64565b60405161044691906137f7565b60405180910390f35b61046960048036038101906104649190613303565b612f7c565b6040516104769190613cef565b60405180910390f35b61049960048036038101906104949190613983565b612f94565b6040516104a691906139c3565b60405180910390f35b600d60405180606001604052808481526020018373ffffffffffffffffffffffffffffffffffffffff16815260200160011515815250908060018154018082558091505060019003906000526020600020906002020160009091909190915060008201518160000190816105239190613f16565b5060208201518160010160006101000a81548173ffffffffffffffffffffffffffffffffffffffff021916908373ffffffffffffffffffffffffffffffffffffffff16021790555060408201518160010160146101000a81548160ff02191690831515021790555050505050565b60046020528060005260406000206000915090508060000160009054906101000a900460ff16908060010180546105c790613d39565b80601f01602080910402602001604051908101604052809291908181526020018280546105f390613d39565b80156106405780601f1061061557610100808354040283529160200191610640565b820191906000526020600020905b81548152906001019060200180831161062357829003601f168201915b50505050509080600201805461065590613d39565b80601f016020809104026020016040519081016040528092919081815260200182805461068190613d39565b80156106ce5780601f106106a3576101008083540402835291602001916106ce565b820191906000526020600020905b8154815290600101906020018083116106b157829003601f168201915b5050505050908060030180546106e390613d39565b80601f016020809104026020016040519081016040528092919081815260200182805461070f90613d39565b801561075c5780601f106107315761010080835404028352916020019161075c565b820191906000526020600020905b81548152906001019060200180831161073f57829003601f168201915b5050505050908060040160009054906101000a900460ff16908060040160019054906101000a900473ffffffffffffffffffffffffffffffffffffffff16908060050160009054906101000a900473ffffffffffffffffffffffffffffffffffffffff16908060060160009054906101000a900473ffffffffffffffffffffffffffffffffffffffff16905088565b6060600e60008473ffffffffffffffffffffffffffffffffffffffff1673ffffffffffffffffffffffffffffffffffffffff1681526020019081526020016000208260405161083a9190614024565b90815260200160405180910390208054806020026020016040519081016040528092919081815260200182805480156108c857602002820191906000526020600020905b8160009054906101000a900473ffffffffffffffffffffffffffffffffffffffff1673ffffffffffffffffffffffffffffffffffffffff168152602001906001019080831161087e575b5050505050905092915050565b60606010805480602002602001604051908101604052809291908181526020016000905b82821015610a2e578382906000526020600020906002020160405180606001604052908160008201805461092c90613d39565b80601f016020809104026020016040519081016040528092919081815260200182805461095890613d39565b80156109a55780601f1061097a576101008083540402835291602001916109a5565b820191906000526020600020905b81548152906001019060200180831161098857829003601f168201915b505050505081526020016001820160009054906101000a900473ffffffffffffffffffffffffffffffffffffffff1673ffffffffffffffffffffffffffffffffffffffff1673ffffffffffffffffffffffffffffffffffffffff1681526020016001820160149054906101000a900460ff161515151581525050815260200190600101906108f9565b50505050905090565b60606000803373ffffffffffffffffffffffffffffffffffffffff1673ffffffffffffffffffffffffffffffffffffffff168152602001908152602001600020805480602002602001604051908101604052809291908181526020018280548015610af757602002820191906000526020600020905b8160009054906101000a900473ffffffffffffffffffffffffffffffffffffffff1673ffffffffffffffffffffffffffffffffffffffff1681526020019060010190808311610aad575b5050505050905090565b6060600960008473ffffffffffffffffffffffffffffffffffffffff1673ffffffffffffffffffffffffffffffffffffffff16815260200190815260200160002082604051610b509190614024565b9081526020016040518091039020805480602002602001604051908101604052809291908181526020018280548015610bde57602002820191906000526020600020905b8160009054906101000a900473ffffffffffffffffffffffffffffffffffffffff1673ffffffffffffffffffffffffffffffffffffffff1681526020019060010190808311610b94575b5050505050905092915050565b6060600b60008373ffffffffffffffffffffffffffffffffffffffff1673ffffffffffffffffffffffffffffffffffffffff168152602001908152602001600020805480602002602001604051908101604052809291908181526020016000905b82821015610cf8578382906000526020600020018054610c6b90613d39565b80601f0160208091040260200160405190810160405280929190818152602001828054610c9790613d39565b8015610ce45780601f10610cb957610100808354040283529160200191610ce4565b820191906000526020600020905b815481529060010190602001808311610cc757829003601f168201915b505050505081526020019060010190610c4c565b505050509050919050565b6060600d805480602002602001604051908101604052809291908181526020016000905b82821015610e5c5783829060005260206000209060020201604051806060016040529081600082018054610d5a90613d39565b80601f0160208091040260200160405190810160405280929190818152602001828054610d8690613d39565b8015610dd35780601f10610da857610100808354040283529160200191610dd3565b820191906000526020600020905b815481529060010190602001808311610db657829003601f168201915b505050505081526020016001820160009054906101000a900473ffffffffffffffffffffffffffffffffffffffff1673ffffffffffffffffffffffffffffffffffffffff1673ffffffffffffffffffffffffffffffffffffffff1681526020016001820160149054906101000a900460ff16151515158152505081526020019060010190610d27565b50505050905090565b6060600a805480602002602001604051908101604052809291908181526020016000905b82821015610f35578382906000526020600020018054610ea890613d39565b80601f0160208091040260200160405190810160405280929190818152602001828054610ed490613d39565b8015610f215780601f10610ef657610100808354040283529160200191610f21565b820191906000526020600020905b815481529060010190602001808311610f0457829003601f168201915b505050505081526020019060010190610e89565b50505050905090565b601060405180606001604052808481526020018373ffffffffffffffffffffffffffffffffffffffff1681526020016001151581525090806001815401808255809150506001900390600052602060002090600202016000909190919091506000820151816000019081610fb29190613f16565b5060208201518160010160006101000a81548173ffffffffffffffffffffffffffffffffffffffff021916908373ffffffffffffffffffffffffffffffffffffffff16021790555060408201518160010160146101000a81548160ff02191690831515021790555050505050565b600f602052816000526040600020818154811061103c57600080fd5b9060005260206000200160009150915050805461105890613d39565b80601f016020809104026020016040519081016040528092919081815260200182805461108490613d39565b80156110d15780601f106110a6576101008083540402835291602001916110d1565b820191906000526020600020905b8154815290600101906020018083116110b457829003601f168201915b505050505081565b60005b818110156115f057600060023342846040516020016110fd939291906140a4565b6040516020818303038152906040526040516111199190614128565b602060405180830381855afa158015611136573d6000803e3d6000fd5b5050506040513d601f19601f820116820180604052508101906111599190614175565b60601c90506001600460008373ffffffffffffffffffffffffffffffffffffffff1673ffffffffffffffffffffffffffffffffffffffff16815260200190815260200160002060000160006101000a81548160ff02191690831515021790555084600460008373ffffffffffffffffffffffffffffffffffffffff1673ffffffffffffffffffffffffffffffffffffffff16815260200190815260200160002060010190816112089190613f16565b5083600460008373ffffffffffffffffffffffffffffffffffffffff1673ffffffffffffffffffffffffffffffffffffffff16815260200190815260200160002060020190816112589190613f16565b506040518060400160405280600c81526020017f4d616e7566616374757265640000000000000000000000000000000000000000815250600460008373ffffffffffffffffffffffffffffffffffffffff1673ffffffffffffffffffffffffffffffffffffffff16815260200190815260200160002060030190816112dd9190613f16565b506000600460008373ffffffffffffffffffffffffffffffffffffffff1673ffffffffffffffffffffffffffffffffffffffff16815260200190815260200160002060040160006101000a81548160ff02191690831515021790555033600460008373ffffffffffffffffffffffffffffffffffffffff1673ffffffffffffffffffffffffffffffffffffffff16815260200190815260200160002060040160016101000a81548173ffffffffffffffffffffffffffffffffffffffff021916908373ffffffffffffffffffffffffffffffffffffffff1602179055506000600460008373ffffffffffffffffffffffffffffffffffffffff1673ffffffffffffffffffffffffffffffffffffffff16815260200190815260200160002060050160006101000a81548173ffffffffffffffffffffffffffffffffffffffff021916908373ffffffffffffffffffffffffffffffffffffffff1602179055506000600460008373ffffffffffffffffffffffffffffffffffffffff1673ffffffffffffffffffffffffffffffffffffffff16815260200190815260200160002060060160006101000a81548173ffffffffffffffffffffffffffffffffffffffff021916908373ffffffffffffffffffffffffffffffffffffffff1602179055506000803373ffffffffffffffffffffffffffffffffffffffff1673ffffffffffffffffffffffffffffffffffffffff168152602001908152602001600020819080600181540180825580915050600190039060005260206000200160009091909190916101000a81548173ffffffffffffffffffffffffffffffffffffffff021916908373ffffffffffffffffffffffffffffffffffffffff16021790555060078560405161156d9190614024565b9081526020016040518091039020819080600181540180825580915050600190039060005260206000200160009091909190916101000a81548173ffffffffffffffffffffffffffffffffffffffff021916908373ffffffffffffffffffffffffffffffffffffffff1602179055505080806115e8906141d1565b9150506110dc565b50816008846040516116029190614024565b9081526020016040518091039020908161161c9190613f16565b506000805b600a805490508110156116ba578460405160200161163f9190614024565b60405160208183030381529060405280519060200120600a828154811061166957611668614219565b5b9060005260206000200160405160200161168391906142cb565b60405160208183030381529060405280519060200120036116a757600191506116ba565b80806116b2906141d1565b915050611621565b5060001515811515036116fd57600a849080600181540180825580915050600190039060005260206000200160009091909190915090816116fb9190613f16565b505b50505050565b60606008826040516117159190614024565b9081526020016040518091039020805461172e90613d39565b80601f016020809104026020016040519081016040528092919081815260200182805461175a90613d39565b80156117a75780601f1061177c576101008083540402835291602001916117a7565b820191906000526020600020905b81548152906001019060200180831161178a57829003601f168201915b50505050509050919050565b6060600c60006117c3919061304d565b60005b8451811015612267578481815181106117e2576117e1614219565b5b602002602001015160200151600960008673ffffffffffffffffffffffffffffffffffffffff1673ffffffffffffffffffffffffffffffffffffffff1681526020019081526020016000208683815181106118405761183f614219565b5b6020026020010151600001516040516118599190614024565b908152602001604051809103902080549050106121e15760005b85828151811061188657611885614219565b5b602002602001015160200151811015611cab57600e60008573ffffffffffffffffffffffffffffffffffffffff1673ffffffffffffffffffffffffffffffffffffffff1681526020019081526020016000208683815181106118eb576118ea614219565b5b6020026020010151600001516040516119049190614024565b9081526020016040518091039020600960008773ffffffffffffffffffffffffffffffffffffffff1673ffffffffffffffffffffffffffffffffffffffff16815260200190815260200160002087848151811061196457611963614219565b5b60200260200101516000015160405161197d9190614024565b9081526020016040518091039020828154811061199d5761199c614219565b5b9060005260206000200160009054906101000a900473ffffffffffffffffffffffffffffffffffffffff169080600181540180825580915050600190039060005260206000200160009091909190916101000a81548173ffffffffffffffffffffffffffffffffffffffff021916908373ffffffffffffffffffffffffffffffffffffffff1602179055506040518060400160405280601681526020017f4469737061746368656420746f2056657269666965720000000000000000000081525060046000600960008973ffffffffffffffffffffffffffffffffffffffff1673ffffffffffffffffffffffffffffffffffffffff168152602001908152602001600020898681518110611ab457611ab3614219565b5b602002602001015160000151604051611acd9190614024565b90815260200160405180910390208481548110611aed57611aec614219565b5b9060005260206000200160009054906101000a900473ffffffffffffffffffffffffffffffffffffffff1673ffffffffffffffffffffffffffffffffffffffff1673ffffffffffffffffffffffffffffffffffffffff1681526020019081526020016000206003019081611b619190613f16565b508360046000600960008973ffffffffffffffffffffffffffffffffffffffff1673ffffffffffffffffffffffffffffffffffffffff168152602001908152602001600020898681518110611bb957611bb8614219565b5b602002602001015160000151604051611bd29190614024565b90815260200160405180910390208481548110611bf257611bf1614219565b5b9060005260206000200160009054906101000a900473ffffffffffffffffffffffffffffffffffffffff1673ffffffffffffffffffffffffffffffffffffffff1673ffffffffffffffffffffffffffffffffffffffff16815260200190815260200160002060060160006101000a81548173ffffffffffffffffffffffffffffffffffffffff021916908373ffffffffffffffffffffffffffffffffffffffff1602179055508080611ca3906141d1565b915050611873565b506000806001878481518110611cc457611cc3614219565b5b602002602001015160200151611cda91906142e2565b90505b600960008773ffffffffffffffffffffffffffffffffffffffff1673ffffffffffffffffffffffffffffffffffffffff168152602001908152602001600020878481518110611d2f57611d2e614219565b5b602002602001015160000151604051611d489190614024565b908152602001604051809103902080549050811015611f0b57600960008773ffffffffffffffffffffffffffffffffffffffff1673ffffffffffffffffffffffffffffffffffffffff168152602001908152602001600020878481518110611db357611db2614219565b5b602002602001015160000151604051611dcc9190614024565b90815260200160405180910390208181548110611dec57611deb614219565b5b9060005260206000200160009054906101000a900473ffffffffffffffffffffffffffffffffffffffff16600960008873ffffffffffffffffffffffffffffffffffffffff1673ffffffffffffffffffffffffffffffffffffffff168152602001908152602001600020888581518110611e6957611e68614219565b5b602002602001015160000151604051611e829190614024565b90815260200160405180910390208381548110611ea257611ea1614219565b5b9060005260206000200160006101000a81548173ffffffffffffffffffffffffffffffffffffffff021916908373ffffffffffffffffffffffffffffffffffffffff1602179055508180611ef5906141d1565b9250508080611f03906141d1565b915050611cdd565b5060005b868381518110611f2257611f21614219565b5b60200260200101516020015181101561200657600960008773ffffffffffffffffffffffffffffffffffffffff1673ffffffffffffffffffffffffffffffffffffffff168152602001908152602001600020878481518110611f8757611f86614219565b5b602002602001015160000151604051611fa09190614024565b9081526020016040518091039020805480611fbe57611fbd614316565b5b6001900381819060005260206000200160006101000a81549073ffffffffffffffffffffffffffffffffffffffff021916905590558080611ffe906141d1565b915050611f0f565b506000805b600f60008773ffffffffffffffffffffffffffffffffffffffff1673ffffffffffffffffffffffffffffffffffffffff1681526020019081526020016000208054905081101561213c5787848151811061206857612067614219565b5b6020026020010151600001516040516020016120849190614024565b60405160208183030381529060405280519060200120600f60008873ffffffffffffffffffffffffffffffffffffffff1673ffffffffffffffffffffffffffffffffffffffff16815260200190815260200160002082815481106120eb576120ea614219565b5b9060005260206000200160405160200161210591906142cb565b6040516020818303038152906040528051906020012003612129576001915061213c565b8080612134906141d1565b91505061200b565b5060001515811515036121da57600f60008673ffffffffffffffffffffffffffffffffffffffff1673ffffffffffffffffffffffffffffffffffffffff16815260200190815260200160002087848151811061219b5761219a614219565b5b6020026020010151600001519080600181540180825580915050600190039060005260206000200160009091909190915090816121d89190613f16565b505b5050612254565b600c8582815181106121f6576121f5614219565b5b60200260200101516000015160405160200161221291906143dd565b6040516020818303038152906040529080600181540180825580915050600190039060005260206000200160009091909190915090816122529190613f16565b505b808061225f906141d1565b9150506117c6565b50600c805480602002602001604051908101604052809291908181526020016000905b828210156123365783829060005260206000200180546122a990613d39565b80601f01602080910402602001604051908101604052809291908181526020018280546122d590613d39565b80156123225780601f106122f757610100808354040283529160200191612322565b820191906000526020600020905b81548152906001019060200180831161230557829003601f168201915b50505050508152602001906001019061228a565b5050505090509392505050565b600881805160208101820180518482526020830160208501208183528095505050505050600091509050805461237890613d39565b80601f01602080910402602001604051908101604052809291908181526020018280546123a490613d39565b80156123f15780601f106123c6576101008083540402835291602001916123f1565b820191906000526020600020905b8154815290600101906020018083116123d457829003601f168201915b505050505081565b6060600c6000612409919061304d565b60005b8351811015612cc55783818151811061242857612427614219565b5b602002602001015160200151600785838151811061244957612448614219565b5b6020026020010151600001516040516124629190614024565b90815260200160405180910390208054905010612c3f5760005b84828151811061248f5761248e614219565b5b6020026020010151602001518110156127fd57600960008573ffffffffffffffffffffffffffffffffffffffff1673ffffffffffffffffffffffffffffffffffffffff1681526020019081526020016000208583815181106124f4576124f3614219565b5b60200260200101516000015160405161250d9190614024565b908152602001604051809103902060078684815181106125305761252f614219565b5b6020026020010151600001516040516125499190614024565b9081526020016040518091039020828154811061256957612568614219565b5b9060005260206000200160009054906101000a900473ffffffffffffffffffffffffffffffffffffffff169080600181540180825580915050600190039060005260206000200160009091909190916101000a81548173ffffffffffffffffffffffffffffffffffffffff021916908373ffffffffffffffffffffffffffffffffffffffff1602179055506040518060400160405280601981526020017f4469737061746368656420746f2064697374726962757465720000000000000081525060046000600788868151811061264357612642614219565b5b60200260200101516000015160405161265c9190614024565b9081526020016040518091039020848154811061267c5761267b614219565b5b9060005260206000200160009054906101000a900473ffffffffffffffffffffffffffffffffffffffff1673ffffffffffffffffffffffffffffffffffffffff1673ffffffffffffffffffffffffffffffffffffffff16815260200190815260200160002060030190816126f09190613f16565b508360046000600788868151811061270b5761270a614219565b5b6020026020010151600001516040516127249190614024565b9081526020016040518091039020848154811061274457612743614219565b5b9060005260206000200160009054906101000a900473ffffffffffffffffffffffffffffffffffffffff1673ffffffffffffffffffffffffffffffffffffffff1673ffffffffffffffffffffffffffffffffffffffff16815260200190815260200160002060050160006101000a81548173ffffffffffffffffffffffffffffffffffffffff021916908373ffffffffffffffffffffffffffffffffffffffff16021790555080806127f5906141d1565b91505061247c565b50600080600186848151811061281657612815614219565b5b60200260200101516020015161282c91906142e2565b90505b600786848151811061284457612843614219565b5b60200260200101516000015160405161285d9190614024565b9081526020016040518091039020805490508110156129a657600786848151811061288b5761288a614219565b5b6020026020010151600001516040516128a49190614024565b908152602001604051809103902081815481106128c4576128c3614219565b5b9060005260206000200160009054906101000a900473ffffffffffffffffffffffffffffffffffffffff16600787858151811061290457612903614219565b5b60200260200101516000015160405161291d9190614024565b9081526020016040518091039020838154811061293d5761293c614219565b5b9060005260206000200160006101000a81548173ffffffffffffffffffffffffffffffffffffffff021916908373ffffffffffffffffffffffffffffffffffffffff1602179055508180612990906141d1565b925050808061299e906141d1565b91505061282f565b5060005b8583815181106129bd576129bc614219565b5b602002602001015160200151811015612a645760078684815181106129e5576129e4614219565b5b6020026020010151600001516040516129fe9190614024565b9081526020016040518091039020805480612a1c57612a1b614316565b5b6001900381819060005260206000200160006101000a81549073ffffffffffffffffffffffffffffffffffffffff021916905590558080612a5c906141d1565b9150506129aa565b506000805b600b60008773ffffffffffffffffffffffffffffffffffffffff1673ffffffffffffffffffffffffffffffffffffffff16815260200190815260200160002080549050811015612b9a57868481518110612ac657612ac5614219565b5b602002602001015160000151604051602001612ae29190614024565b60405160208183030381529060405280519060200120600b60008873ffffffffffffffffffffffffffffffffffffffff1673ffffffffffffffffffffffffffffffffffffffff1681526020019081526020016000208281548110612b4957612b48614219565b5b90600052602060002001604051602001612b6391906142cb565b6040516020818303038152906040528051906020012003612b875760019150612b9a565b8080612b92906141d1565b915050612a69565b506000151581151503612c3857600b60008673ffffffffffffffffffffffffffffffffffffffff1673ffffffffffffffffffffffffffffffffffffffff168152602001908152602001600020868481518110612bf957612bf8614219565b5b602002602001015160000151908060018154018082558091505060019003906000526020600020016000909190919091509081612c369190613f16565b505b5050612cb2565b600c848281518110612c5457612c53614219565b5b602002602001015160000151604051602001612c7091906143dd565b604051602081830303815290604052908060018154018082558091505060019003906000526020600020016000909190919091509081612cb09190613f16565b505b8080612cbd906141d1565b91505061240c565b50600c805480602002602001604051908101604052809291908181526020016000905b82821015612d94578382906000526020600020018054612d0790613d39565b80601f0160208091040260200160405190810160405280929190818152602001828054612d3390613d39565b8015612d805780601f10612d5557610100808354040283529160200191612d80565b820191906000526020600020905b815481529060010190602001808311612d6357829003601f168201915b505050505081526020019060010190612ce8565b50505050905092915050565b60056020528060005260406000206000915090505481565b6060600782604051612dca9190614024565b9081526020016040518091039020805480602002602001604051908101604052809291908181526020018280548015612e5857602002820191906000526020600020905b8160009054906101000a900473ffffffffffffffffffffffffffffffffffffffff1673ffffffffffffffffffffffffffffffffffffffff1681526020019060010190808311612e0e575b50505050509050919050565b6060600f60008373ffffffffffffffffffffffffffffffffffffffff1673ffffffffffffffffffffffffffffffffffffffff168152602001908152602001600020805480602002602001604051908101604052809291908181526020016000905b82821015612f71578382906000526020600020018054612ee490613d39565b80601f0160208091040260200160405190810160405280929190818152602001828054612f1090613d39565b8015612f5d5780601f10612f3257610100808354040283529160200191612f5d565b820191906000526020600020905b815481529060010190602001808311612f4057829003601f168201915b505050505081526020019060010190612ec5565b505050509050919050565b60066020528060005260406000206000915090505481565b600b6020528160005260406000208181548110612fb057600080fd5b90600052602060002001600091509150508054612fcc90613d39565b80601f0160208091040260200160405190810160405280929190818152602001828054612ff890613d39565b80156130455780601f1061301a57610100808354040283529160200191613045565b820191906000526020600020905b81548152906001019060200180831161302857829003601f168201915b505050505081565b508054600082559060005260206000209081019061306b919061306e565b50565b5b8082111561308e57600081816130859190613092565b5060010161306f565b5090565b50805461309e90613d39565b6000825580601f106130b057506130cf565b601f0160209004906000526020600020908101906130ce91906130d2565b5b50565b5b808211156130eb5760008160009055506001016130d3565b5090565b6000604051905090565b600080fd5b600080fd5b600080fd5b600080fd5b6000601f19601f8301169050919050565b7f4e487b7100000000000000000000000000000000000000000000000000000000600052604160045260246000fd5b6131568261310d565b810181811067ffffffffffffffff821117156131755761317461311e565b5b80604052505050565b60006131886130ef565b9050613194828261314d565b919050565b600067ffffffffffffffff8211156131b4576131b361311e565b5b6131bd8261310d565b9050602081019050919050565b82818337600083830152505050565b60006131ec6131e784613199565b61317e565b90508281526020810184848401111561320857613207613108565b5b6132138482856131ca565b509392505050565b600082601f8301126132305761322f613103565b5b81356132408482602086016131d9565b91505092915050565b600073ffffffffffffffffffffffffffffffffffffffff82169050919050565b600061327482613249565b9050919050565b61328481613269565b811461328f57600080fd5b50565b6000813590506132a18161327b565b92915050565b600080604083850312156132be576132bd6130f9565b5b600083013567ffffffffffffffff8111156132dc576132db6130fe565b5b6132e88582860161321b565b92505060206132f985828601613292565b9150509250929050565b600060208284031215613319576133186130f9565b5b600061332784828501613292565b91505092915050565b60008115159050919050565b61334581613330565b82525050565b600081519050919050565b600082825260208201905092915050565b60005b8381101561338557808201518184015260208101905061336a565b60008484015250505050565b600061339c8261334b565b6133a68185613356565b93506133b6818560208601613367565b6133bf8161310d565b840191505092915050565b6133d381613269565b82525050565b6000610100820190506133ef600083018b61333c565b8181036020830152613401818a613391565b905081810360408301526134158189613391565b905081810360608301526134298188613391565b9050613438608083018761333c565b61344560a08301866133ca565b61345260c08301856133ca565b61345f60e08301846133ca565b9998505050505050505050565b60008060408385031215613483576134826130f9565b5b600061349185828601613292565b925050602083013567ffffffffffffffff8111156134b2576134b16130fe565b5b6134be8582860161321b565b9150509250929050565b600081519050919050565b600082825260208201905092915050565b6000819050602082019050919050565b6134fd81613269565b82525050565b600061350f83836134f4565b60208301905092915050565b6000602082019050919050565b6000613533826134c8565b61353d81856134d3565b9350613548836134e4565b8060005b838110156135795781516135608882613503565b975061356b8361351b565b92505060018101905061354c565b5085935050505092915050565b600060208201905081810360008301526135a08184613528565b905092915050565b600081519050919050565b600082825260208201905092915050565b6000819050602082019050919050565b600082825260208201905092915050565b60006135f08261334b565b6135fa81856135d4565b935061360a818560208601613367565b6136138161310d565b840191505092915050565b61362781613330565b82525050565b6000606083016000830151848203600086015261364a82826135e5565b915050602083015161365f60208601826134f4565b506040830151613672604086018261361e565b508091505092915050565b6000613689838361362d565b905092915050565b6000602082019050919050565b60006136a9826135a8565b6136b381856135b3565b9350836020820285016136c5856135c4565b8060005b8581101561370157848403895281516136e2858261367d565b94506136ed83613691565b925060208a019950506001810190506136c9565b50829750879550505050505092915050565b6000602082019050818103600083015261372d818461369e565b905092915050565b600081519050919050565b600082825260208201905092915050565b6000819050602082019050919050565b600061376d83836135e5565b905092915050565b6000602082019050919050565b600061378d82613735565b6137978185613740565b9350836020820285016137a985613751565b8060005b858110156137e557848403895281516137c68582613761565b94506137d183613775565b925060208a019950506001810190506137ad565b50829750879550505050505092915050565b600060208201905081810360008301526138118184613782565b905092915050565b600081519050919050565b600082825260208201905092915050565b6000819050602082019050919050565b6000606083016000830151848203600086015261386282826135e5565b915050602083015161387760208601826134f4565b50604083015161388a604086018261361e565b508091505092915050565b60006138a18383613845565b905092915050565b6000602082019050919050565b60006138c182613819565b6138cb8185613824565b9350836020820285016138dd85613835565b8060005b8581101561391957848403895281516138fa8582613895565b9450613905836138a9565b925060208a019950506001810190506138e1565b50829750879550505050505092915050565b6000602082019050818103600083015261394581846138b6565b905092915050565b6000819050919050565b6139608161394d565b811461396b57600080fd5b50565b60008135905061397d81613957565b92915050565b6000806040838503121561399a576139996130f9565b5b60006139a885828601613292565b92505060206139b98582860161396e565b9150509250929050565b600060208201905081810360008301526139dd8184613391565b905092915050565b6000806000606084860312156139fe576139fd6130f9565b5b600084013567ffffffffffffffff811115613a1c57613a1b6130fe565b5b613a288682870161321b565b935050602084013567ffffffffffffffff811115613a4957613a486130fe565b5b613a558682870161321b565b9250506040613a668682870161396e565b9150509250925092565b600060208284031215613a8657613a856130f9565b5b600082013567ffffffffffffffff811115613aa457613aa36130fe565b5b613ab08482850161321b565b91505092915050565b600067ffffffffffffffff821115613ad457613ad361311e565b5b602082029050602081019050919050565b600080fd5b600080fd5b600080fd5b600060408284031215613b0a57613b09613aea565b5b613b14604061317e565b9050600082013567ffffffffffffffff811115613b3457613b33613aef565b5b613b408482850161321b565b6000830152506020613b548482850161396e565b60208301525092915050565b6000613b73613b6e84613ab9565b61317e565b90508083825260208201905060208402830185811115613b9657613b95613ae5565b5b835b81811015613bdd57803567ffffffffffffffff811115613bbb57613bba613103565b5b808601613bc88982613af4565b85526020850194505050602081019050613b98565b5050509392505050565b600082601f830112613bfc57613bfb613103565b5b8135613c0c848260208601613b60565b91505092915050565b600080600060608486031215613c2e57613c2d6130f9565b5b600084013567ffffffffffffffff811115613c4c57613c4b6130fe565b5b613c5886828701613be7565b9350506020613c6986828701613292565b9250506040613c7a86828701613292565b9150509250925092565b60008060408385031215613c9b57613c9a6130f9565b5b600083013567ffffffffffffffff811115613cb957613cb86130fe565b5b613cc585828601613be7565b9250506020613cd685828601613292565b9150509250929050565b613ce98161394d565b82525050565b6000602082019050613d046000830184613ce0565b92915050565b7f4e487b7100000000000000000000000000000000000000000000000000000000600052602260045260246000fd5b60006002820490506001821680613d5157607f821691505b602082108103613d6457613d63613d0a565b5b50919050565b60008190508160005260206000209050919050565b60006020601f8301049050919050565b600082821b905092915050565b600060088302613dcc7fffffffffffffffffffffffffffffffffffffffffffffffffffffffffffffffff82613d8f565b613dd68683613d8f565b95508019841693508086168417925050509392505050565b6000819050919050565b6000613e13613e0e613e098461394d565b613dee565b61394d565b9050919050565b6000819050919050565b613e2d83613df8565b613e41613e3982613e1a565b848454613d9c565b825550505050565b600090565b613e56613e49565b613e61818484613e24565b505050565b5b81811015613e8557613e7a600082613e4e565b600181019050613e67565b5050565b601f821115613eca57613e9b81613d6a565b613ea484613d7f565b81016020851015613eb3578190505b613ec7613ebf85613d7f565b830182613e66565b50505b505050565b600082821c905092915050565b6000613eed60001984600802613ecf565b1980831691505092915050565b6000613f068383613edc565b9150826002028217905092915050565b613f1f8261334b565b67ffffffffffffffff811115613f3857613f3761311e565b5b613f428254613d39565b613f4d828285613e89565b600060209050601f831160018114613f805760008415613f6e578287015190505b613f788582613efa565b865550613fe0565b601f198416613f8e86613d6a565b60005b82811015613fb657848901518255600182019150602085019450602081019050613f91565b86831015613fd35784890151613fcf601f891682613edc565b8355505b6001600288020188555050505b505050505050565b600081905092915050565b6000613ffe8261334b565b6140088185613fe8565b9350614018818560208601613367565b80840191505092915050565b60006140308284613ff3565b915081905092915050565b60008160601b9050919050565b60006140538261403b565b9050919050565b600061406582614048565b9050919050565b61407d61407882613269565b61405a565b82525050565b6000819050919050565b61409e6140998261394d565b614083565b82525050565b60006140b0828661406c565b6014820191506140c0828561408d565b6020820191506140d0828461408d565b602082019150819050949350505050565b600081519050919050565b600081905092915050565b6000614102826140e1565b61410c81856140ec565b935061411c818560208601613367565b80840191505092915050565b600061413482846140f7565b915081905092915050565b6000819050919050565b6141528161413f565b811461415d57600080fd5b50565b60008151905061416f81614149565b92915050565b60006020828403121561418b5761418a6130f9565b5b600061419984828501614160565b91505092915050565b7f4e487b7100000000000000000000000000000000000000000000000000000000600052601160045260246000fd5b60006141dc8261394d565b91507fffffffffffffffffffffffffffffffffffffffffffffffffffffffffffffffff820361420e5761420d6141a2565b5b600182019050919050565b7f4e487b7100000000000000000000000000000000000000000000000000000000600052603260045260246000fd5b6000815461425581613d39565b61425f8186613fe8565b9450600182166000811461427a576001811461428f576142c2565b60ff19831686528115158202860193506142c2565b61429885613d6a565b60005b838110156142ba5781548189015260018201915060208101905061429b565b838801955050505b50505092915050565b60006142d78284614248565b915081905092915050565b60006142ed8261394d565b91506142f88361394d565b92508282019050808211156143105761430f6141a2565b5b92915050565b7f4e487b7100000000000000000000000000000000000000000000000000000000600052603160045260246000fd5b7f206973206e6f742061737369676e656420746f2074686520646973747269627560008201527f7465722061732073746f636b206973206c657373207468616e2074686520717560208201527f616e746974792061737369676e65640000000000000000000000000000000000604082015250565b60006143c7604f83613fe8565b91506143d282614345565b604f82019050919050565b60006143e98284613ff3565b91506143f4826143ba565b91508190509291505056fea26469706673582212203142eb9d8644e751a3c00a852731464b0ad5ec1d2907a2a33c1651e27e3ece0364736f6c63430008130033",
  "immutableReferences": {},
  "source": "// SPDX-License-Identifier: GPL-3.0\n\npragma solidity >=0.7.0 <0.9.0;\n\ncontract DrugVerify {\n    struct drug {\n        bool drug_id;\n        string drug_name;\n        string drug_info_json;\n        string drug_status;\n        // string drug_current_location;\n        bool isSold;\n        address manfacturer;\n        address distributer;\n        address verifier;\n    }\n    struct assignDrug {\n        string drug_name;\n        uint quantity;\n    }\n\n    struct distributer {\n        string name;\n        address distributer_address;\n        bool verified;\n    }\n\n    struct verifier {\n        string name;\n        address verifier_address;\n        bool verified;\n    }\n    \n    //[1,3, 4] , [5, 8, 11]-> [[1, 3, 4],[5, 8, 11]]\n    mapping(address => address[]) manufacturer_drugs;  // List of manufacturer's drug\n    mapping(address => mapping(uint => address[])) distributer_drugs;  // List of distributer's drug\n    mapping(address => mapping(uint => address[])) verifier_drugs;  // List of verifier's drug\n    mapping(address => mapping(string => string)) timestamp;\n    mapping(address => drug) public drugs;  // List of drugs deployed into blockchain\n    mapping(address => uint) public no_dis_drugs_index;\n    mapping(address => uint)public no_verifier_drugs_index;\n    mapping(string => address[]) drugs_by_name;  // Search all drug ids by name of drug\n    mapping(string => string) public description_by_name;   //Search for the description of drug\n    mapping(address => mapping(string => address[])) distributer_drugs_by_name;   //Search list of drugs assigned to distributer by name of drug for a particular distributer\n    string[] drug_names; // List of all drug names for manufacturer\n    mapping(address => string[]) public distributer_drug_names;  // Search for a list of all drug names for a particular distributer\n    string[] not_assigned_drugs_result;\n    distributer[] distributer_list;\n    mapping(address => mapping(string => address[])) verifier_drugs_by_name;\n    mapping(address => string[]) public verifier_drug_names;\n    verifier[] verifier_list;\n    // uint public no_dis_drugs_index = 0;\n    // uint public no_verifier_drugs_index = 0;\n\n    // Manufacturer --> New Drug addition into blockchain\n    function addDrug(string memory name, string memory info_json, uint quantity) public {\n        for(uint i=0; i<quantity; i++) {\n            address uniqueId = address(bytes20(sha256(abi.encodePacked(msg.sender,block.timestamp, i))));\n        \n            drugs[uniqueId].drug_id = true;\n            drugs[uniqueId].drug_name = name;\n            drugs[uniqueId].drug_info_json = info_json;\n            drugs[uniqueId].drug_status = \"Manufactured\";\n            drugs[uniqueId].isSold = false;\n            drugs[uniqueId].manfacturer = msg.sender;\n            drugs[uniqueId].distributer = 0x0000000000000000000000000000000000000000;\n            drugs[uniqueId].verifier = 0x0000000000000000000000000000000000000000;\n            manufacturer_drugs[msg.sender].push(uniqueId);\n            drugs_by_name[name].push(uniqueId);\n        }\n        description_by_name[name] = info_json;\n        bool check = false;\n        for(uint i=0; i<drug_names.length; i++)\n        {\n            if(keccak256(abi.encodePacked(drug_names[i])) == keccak256(abi.encodePacked(name)))\n            {\n                check = true;\n                break;\n            }\n        }\n        if(check==false)\n        {\n            drug_names.push(name);\n        }\n\n    }\n\n    // Returns drug list of manufacturer for a particular drug(msg.sender)\n    function getDrugsListByName(string memory name) public view returns (address[] memory) {\n        return drugs_by_name[name];\n    }\n    // Get Drug Description by drug name\n    function getDrugDescriptionByName(string memory name) public view returns(string memory) {\n        return description_by_name[name];\n    }\n\n    // get all manufacturer drugs which has been added into the blockchain\n    function getAllDrugsAdded() public view returns (address[] memory) {\n        return manufacturer_drugs[msg.sender];\n    }\n    \n    // Get list of drug names\n    function getDrugNamesList() public view returns(string[] memory) {\n        return drug_names;\n    }\n\n    //Add distributer\n    function addDistributer(string memory name, address _distributer)public {\n        distributer_list.push(distributer({\n            name: name,\n            distributer_address: _distributer,\n            verified: true\n        }));\n    }\n    // Get distributers list\n    function getDistributerList() public view returns(distributer[] memory) {\n        return distributer_list;\n    }\n    // Assign drug ids to a particular distributer\n    function drugDispatchToDistributer(assignDrug[] memory assigned_drugs, address _distributer) public returns (string[] memory) {\n        // for(uint i=0; i<drug_ids.length; i++)\n        // {\n        //     drugs[drug_ids[i]].drug_status = \"Dispatched to distributer\";\n        //     drugs[drug_ids[i]].distributer = _distributer;\n        //     // distributer_drugs[_distributer].push(drug_ids[i]);\n        // }\n        // distributer_drugs[_distributer][no_dis_drugs_index[_distributer]] = drug_ids;\n        // no_dis_drugs_index[_distributer]+=1;\n        delete not_assigned_drugs_result;\n        for(uint i=0; i<assigned_drugs.length; i++)\n        {\n            if(drugs_by_name[assigned_drugs[i].drug_name].length>=assigned_drugs[i].quantity) {\n                for(uint j=0; j<assigned_drugs[i].quantity; j++)\n                {\n                    distributer_drugs_by_name[_distributer][assigned_drugs[i].drug_name].push(drugs_by_name[assigned_drugs[i].drug_name][j]);\n                    drugs[drugs_by_name[assigned_drugs[i].drug_name][j]].drug_status = \"Dispatched to distributer\";\n                    drugs[drugs_by_name[assigned_drugs[i].drug_name][j]].distributer = _distributer;\n                    \n                }\n                uint k = 0;\n                for(uint j=assigned_drugs[i].quantity+1; j<drugs_by_name[assigned_drugs[i].drug_name].length; j++)\n                {\n                    drugs_by_name[assigned_drugs[i].drug_name][k] = drugs_by_name[assigned_drugs[i].drug_name][j];\n                    k++;\n                }\n                for(uint j=0; j<assigned_drugs[i].quantity; j++)\n                {\n                    drugs_by_name[assigned_drugs[i].drug_name].pop();\n                }\n                bool check = false;\n                for(uint j=0; j<distributer_drug_names[_distributer].length; j++)\n                {\n                    if(keccak256(abi.encodePacked(distributer_drug_names[_distributer][j])) == keccak256(abi.encodePacked(assigned_drugs[i].drug_name)))\n                    {\n                        check = true;\n                        break;\n                    }\n                }\n                if(check==false)\n                {\n                    distributer_drug_names[_distributer].push(assigned_drugs[i].drug_name);\n                }\n            }\n            else\n            {\n                not_assigned_drugs_result.push(string(abi.encodePacked(assigned_drugs[i].drug_name, \" is not assigned to the distributer as stock is less than the quantity assigned\")));\n            }\n        }\n        return not_assigned_drugs_result;\n    }\n\n    // Get particular distributer drug names list\n    function getDistributerDrugNames(address _distributer) public view returns(string[] memory) {\n        return distributer_drug_names[_distributer];\n    }\n\n    // Get drug list by name for a particular distributer\n    function getDistributerDrugListByName(address _distributer, string memory name) public view returns(address[] memory) {\n        return distributer_drugs_by_name[_distributer][name];\n    }\n\n\n    //Add verifier\n    function addVerifier(string memory name, address _verifier) public {\n        verifier_list.push(verifier({\n            name: name,\n            verifier_address: _verifier,\n            verified: true\n        }));\n    }\n\n    // Get verifiers list\n    function getVerifierList() public view returns(verifier[] memory) {\n        return verifier_list;\n    }\n    //Assign Drug to verifier\n    function assignDrugToVerifier(assignDrug[] memory assigned_drugs, address _distributer, address _verifier) public returns(string[] memory) {\n        \n        delete not_assigned_drugs_result;\n        for(uint i=0; i<assigned_drugs.length; i++)\n        {\n            if(distributer_drugs_by_name[_distributer][assigned_drugs[i].drug_name].length >= assigned_drugs[i].quantity)\n            {\n                for(uint j=0; j<assigned_drugs[i].quantity; j++)\n                {\n                    verifier_drugs_by_name[_verifier][assigned_drugs[i].drug_name].push(distributer_drugs_by_name[_distributer][assigned_drugs[i].drug_name][j]);\n                    drugs[distributer_drugs_by_name[_distributer][assigned_drugs[i].drug_name][j]].drug_status = \"Dispatched to Verifier\";\n                    drugs[distributer_drugs_by_name[_distributer][assigned_drugs[i].drug_name][j]].verifier = _verifier;\n                }\n                uint k = 0;\n                for(uint j=assigned_drugs[i].quantity+1; j<distributer_drugs_by_name[_distributer][assigned_drugs[i].drug_name].length; j++)\n                {\n                    distributer_drugs_by_name[_distributer][assigned_drugs[i].drug_name][k] = distributer_drugs_by_name[_distributer][assigned_drugs[i].drug_name][j];\n                    k++;\n                }\n                for(uint j=0; j<assigned_drugs[i].quantity; j++)\n                {\n                    distributer_drugs_by_name[_distributer][assigned_drugs[i].drug_name].pop();\n                }\n                bool check = false;\n                for(uint j=0; j<verifier_drug_names[_verifier].length; j++)\n                {\n                    if(keccak256(abi.encodePacked(verifier_drug_names[_verifier][j])) == keccak256(abi.encodePacked(assigned_drugs[i].drug_name)))\n                    {\n                        check = true;\n                        break;\n                    }\n                }\n                if(check==false)\n                {\n                    verifier_drug_names[_verifier].push(assigned_drugs[i].drug_name);\n                }\n            }\n            else\n            {\n                not_assigned_drugs_result.push(string(abi.encodePacked(assigned_drugs[i].drug_name, \" is not assigned to the distributer as stock is less than the quantity assigned\")));\n            }\n\n        }\n        return not_assigned_drugs_result;\n    }\n\n    // Get particular verifier drug names list\n    function getVerifierDrugNames(address _verifier) public view returns(string[] memory) {\n        return verifier_drug_names[_verifier];\n    }\n\n    // Get drug list by name for a particular verifier\n    function getVerifierDrugListByName(address _verifier, string memory name) public view returns(address[] memory) {\n        return verifier_drugs_by_name[_verifier][name];\n    }\n\n    // function getDistributerDrugsList(address _distributer, uint index) public view returns(drug[] memory) {\n    //     drug[] memory tempDrugs;\n    //     uint inc = 0;\n    //     for(uint i=0; i<distributer_drugs[_distributer][index].length; i++)\n    //     {\n    //         tempDrugs[inc] = drugs[distributer_drugs[_distributer][index][i]];\n    //         inc++;\n    //     }\n    //     return tempDrugs;\n    // }\n\n\n    // function drugDispatchToVerifier(address[] memory drug_ids, address _verifier) public {\n    //     for(uint i=0; i<drug_ids.length; i++)\n    //     {\n    //         drugs[drug_ids[i]].drug_status = \"Dispatched to verifer\";\n    //         drugs[drug_ids[i]].distributer = _verifier;\n    //         // verifier_drugs[_verifier].push(drug_ids[i]);\n    //     }\n    //     verifier_drugs[_verifier][no_verifier_drugs_index[_verifier]] = drug_ids;\n    //     no_verifier_drugs_index[_verifier]+=1;\n    // }\n    // function getVerifierDrugAddressesList(address _verifier, uint index) public view returns(address[] memory) {\n    //     return verifier_drugs[_verifier][index];\n    // }\n}",
  "sourcePath": "/Users/satyamagrawal/Desktop/Satyam/smartContractApps/blockchain-code/blockchain-node-api/contracts/drugVerify.sol",
  "compiler": {
    "name": "solc",
    "version": "0.8.19+commit.7dd6d404.Emscripten.clang"
  },
  "schemaVersion": "3.4.12",
  "updatedAt": "2023-03-22T18:39:59.647Z",
  "networkType": "ethereum",
  "devdoc": {
    "kind": "dev",
    "methods": {},
    "version": 1
  },
  "userdoc": {
    "kind": "user",
    "methods": {},
    "version": 1
  }
}