{
  "contractName": "DrugVerify",
  "abi": [
    {
      "inputs": [
        {
          "internalType": "address",
          "name": "",
          "type": "address"
        }
      ],
      "name": "drugs",
      "outputs": [
        {
          "internalType": "bool",
          "name": "drug_id",
          "type": "bool"
        },
        {
          "internalType": "string",
          "name": "drug_name",
          "type": "string"
        },
        {
          "internalType": "string",
          "name": "drug_info_json",
          "type": "string"
        },
        {
          "internalType": "string",
          "name": "drug_status",
          "type": "string"
        },
        {
          "internalType": "bool",
          "name": "isSold",
          "type": "bool"
        },
        {
          "internalType": "address",
          "name": "manfacturer",
          "type": "address"
        },
        {
          "internalType": "address",
          "name": "distributer",
          "type": "address"
        },
        {
          "internalType": "address",
          "name": "verifier",
          "type": "address"
        }
      ],
      "stateMutability": "view",
      "type": "function",
      "constant": true
    },
    {
      "inputs": [
        {
          "internalType": "address",
          "name": "",
          "type": "address"
        }
      ],
      "name": "no_dis_drugs_index",
      "outputs": [
        {
          "internalType": "uint256",
          "name": "",
          "type": "uint256"
        }
      ],
      "stateMutability": "view",
      "type": "function",
      "constant": true
    },
    {
      "inputs": [
        {
          "internalType": "address",
          "name": "",
          "type": "address"
        }
      ],
      "name": "no_verifier_drugs_index",
      "outputs": [
        {
          "internalType": "uint256",
          "name": "",
          "type": "uint256"
        }
      ],
      "stateMutability": "view",
      "type": "function",
      "constant": true
    },
    {
      "inputs": [
        {
          "internalType": "string",
          "name": "name",
          "type": "string"
        },
        {
          "internalType": "string",
          "name": "info_json",
          "type": "string"
        }
      ],
      "name": "addDrug",
      "outputs": [],
      "stateMutability": "nonpayable",
      "type": "function"
    },
    {
      "inputs": [],
      "name": "ManufacturerDrugsList",
      "outputs": [
        {
          "internalType": "address[]",
          "name": "",
          "type": "address[]"
        }
      ],
      "stateMutability": "view",
      "type": "function",
      "constant": true
    },
    {
      "inputs": [
        {
          "internalType": "address[]",
          "name": "drug_ids",
          "type": "address[]"
        },
        {
          "internalType": "address",
          "name": "_distributer",
          "type": "address"
        }
      ],
      "name": "drugDispatchToDistributer",
      "outputs": [],
      "stateMutability": "nonpayable",
      "type": "function"
    },
    {
      "inputs": [
        {
          "internalType": "address",
          "name": "_distributer",
          "type": "address"
        },
        {
          "internalType": "uint256",
          "name": "index",
          "type": "uint256"
        }
      ],
      "name": "getDistributerDrugsAddressesList",
      "outputs": [
        {
          "internalType": "address[]",
          "name": "",
          "type": "address[]"
        }
      ],
      "stateMutability": "view",
      "type": "function",
      "constant": true
    },
    {
      "inputs": [
        {
          "internalType": "address[]",
          "name": "drug_ids",
          "type": "address[]"
        },
        {
          "internalType": "address",
          "name": "_verifier",
          "type": "address"
        }
      ],
      "name": "drugDispatchToVerifier",
      "outputs": [],
      "stateMutability": "nonpayable",
      "type": "function"
    },
    {
      "inputs": [
        {
          "internalType": "address",
          "name": "_verifier",
          "type": "address"
        },
        {
          "internalType": "uint256",
          "name": "index",
          "type": "uint256"
        }
      ],
      "name": "getVerifierDrugAddressesList",
      "outputs": [
        {
          "internalType": "address[]",
          "name": "",
          "type": "address[]"
        }
      ],
      "stateMutability": "view",
      "type": "function",
      "constant": true
    }
  ],
  "bytecode": "0x608060405234801561001057600080fd5b50611c69806100206000396000f3fe608060405234801561001057600080fd5b50600436106100935760003560e01c80637a31b777116100665780637a31b77714610139578063a3aa0edc14610155578063b15e05ad14610185578063be09a31a146101a1578063eb0aaadc146101d157610093565b80630a34f254146100985780631f7ff041146100cf57806347cc76b1146100ed5780636fb4109b1461011d575b600080fd5b6100b260048036038101906100ad919061115a565b610201565b6040516100c6989796959493929190611241565b60405180910390f35b6100d761045b565b6040516100e49190611392565b60405180910390f35b610107600480360381019061010291906113ea565b610525565b6040516101149190611392565b60405180910390f35b61013760048036038101906101329190611572565b610604565b005b610153600480360381019061014e9190611683565b61085d565b005b61016f600480360381019061016a91906113ea565b610cd9565b60405161017c9190611392565b60405180910390f35b61019f600480360381019061019a9190611572565b610db8565b005b6101bb60048036038101906101b6919061115a565b611011565b6040516101c8919061170a565b60405180910390f35b6101eb60048036038101906101e6919061115a565b611029565b6040516101f8919061170a565b60405180910390f35b60046020528060005260406000206000915090508060000160009054906101000a900460ff169080600101805461023790611754565b80601f016020809104026020016040519081016040528092919081815260200182805461026390611754565b80156102b05780601f10610285576101008083540402835291602001916102b0565b820191906000526020600020905b81548152906001019060200180831161029357829003601f168201915b5050505050908060020180546102c590611754565b80601f01602080910402602001604051908101604052809291908181526020018280546102f190611754565b801561033e5780601f106103135761010080835404028352916020019161033e565b820191906000526020600020905b81548152906001019060200180831161032157829003601f168201915b50505050509080600301805461035390611754565b80601f016020809104026020016040519081016040528092919081815260200182805461037f90611754565b80156103cc5780601f106103a1576101008083540402835291602001916103cc565b820191906000526020600020905b8154815290600101906020018083116103af57829003601f168201915b5050505050908060040160009054906101000a900460ff16908060040160019054906101000a900473ffffffffffffffffffffffffffffffffffffffff16908060050160009054906101000a900473ffffffffffffffffffffffffffffffffffffffff16908060060160009054906101000a900473ffffffffffffffffffffffffffffffffffffffff16905088565b60606000803373ffffffffffffffffffffffffffffffffffffffff1673ffffffffffffffffffffffffffffffffffffffff16815260200190815260200160002080548060200260200160405190810160405280929190818152602001828054801561051b57602002820191906000526020600020905b8160009054906101000a900473ffffffffffffffffffffffffffffffffffffffff1673ffffffffffffffffffffffffffffffffffffffff16815260200190600101908083116104d1575b5050505050905090565b6060600160008473ffffffffffffffffffffffffffffffffffffffff1673ffffffffffffffffffffffffffffffffffffffff16815260200190815260200160002060008381526020019081526020016000208054806020026020016040519081016040528092919081815260200182805480156105f757602002820191906000526020600020905b8160009054906101000a900473ffffffffffffffffffffffffffffffffffffffff1673ffffffffffffffffffffffffffffffffffffffff16815260200190600101908083116105ad575b5050505050905092915050565b60005b825181101561075d576040518060400160405280601981526020017f4469737061746368656420746f206469737472696275746572000000000000008152506004600085848151811061065d5761065c611785565b5b602002602001015173ffffffffffffffffffffffffffffffffffffffff1673ffffffffffffffffffffffffffffffffffffffff16815260200190815260200160002060030190816106ae9190611960565b5081600460008584815181106106c7576106c6611785565b5b602002602001015173ffffffffffffffffffffffffffffffffffffffff1673ffffffffffffffffffffffffffffffffffffffff16815260200190815260200160002060050160006101000a81548173ffffffffffffffffffffffffffffffffffffffff021916908373ffffffffffffffffffffffffffffffffffffffff160217905550808061075590611a61565b915050610607565b5081600160008373ffffffffffffffffffffffffffffffffffffffff1673ffffffffffffffffffffffffffffffffffffffff1681526020019081526020016000206000600560008573ffffffffffffffffffffffffffffffffffffffff1673ffffffffffffffffffffffffffffffffffffffff1681526020019081526020016000205481526020019081526020016000209080519060200190610801929190611041565b506001600560008373ffffffffffffffffffffffffffffffffffffffff1673ffffffffffffffffffffffffffffffffffffffff16815260200190815260200160002060008282546108529190611aa9565b925050819055505050565b600060023342604051602001610874929190611b46565b6040516020818303038152906040526040516108909190611bb9565b602060405180830381855afa1580156108ad573d6000803e3d6000fd5b5050506040513d601f19601f820116820180604052508101906108d09190611c06565b60601c90506001600460008373ffffffffffffffffffffffffffffffffffffffff1673ffffffffffffffffffffffffffffffffffffffff16815260200190815260200160002060000160006101000a81548160ff02191690831515021790555082600460008373ffffffffffffffffffffffffffffffffffffffff1673ffffffffffffffffffffffffffffffffffffffff168152602001908152602001600020600101908161097f9190611960565b5081600460008373ffffffffffffffffffffffffffffffffffffffff1673ffffffffffffffffffffffffffffffffffffffff16815260200190815260200160002060020190816109cf9190611960565b506040518060400160405280600c81526020017f4d616e7566616374757265640000000000000000000000000000000000000000815250600460008373ffffffffffffffffffffffffffffffffffffffff1673ffffffffffffffffffffffffffffffffffffffff1681526020019081526020016000206003019081610a549190611960565b506000600460008373ffffffffffffffffffffffffffffffffffffffff1673ffffffffffffffffffffffffffffffffffffffff16815260200190815260200160002060040160006101000a81548160ff02191690831515021790555033600460008373ffffffffffffffffffffffffffffffffffffffff1673ffffffffffffffffffffffffffffffffffffffff16815260200190815260200160002060040160016101000a81548173ffffffffffffffffffffffffffffffffffffffff021916908373ffffffffffffffffffffffffffffffffffffffff1602179055506000600460008373ffffffffffffffffffffffffffffffffffffffff1673ffffffffffffffffffffffffffffffffffffffff16815260200190815260200160002060050160006101000a81548173ffffffffffffffffffffffffffffffffffffffff021916908373ffffffffffffffffffffffffffffffffffffffff1602179055506000600460008373ffffffffffffffffffffffffffffffffffffffff1673ffffffffffffffffffffffffffffffffffffffff16815260200190815260200160002060060160006101000a81548173ffffffffffffffffffffffffffffffffffffffff021916908373ffffffffffffffffffffffffffffffffffffffff1602179055506000803373ffffffffffffffffffffffffffffffffffffffff1673ffffffffffffffffffffffffffffffffffffffff168152602001908152602001600020819080600181540180825580915050600190039060005260206000200160009091909190916101000a81548173ffffffffffffffffffffffffffffffffffffffff021916908373ffffffffffffffffffffffffffffffffffffffff160217905550505050565b6060600260008473ffffffffffffffffffffffffffffffffffffffff1673ffffffffffffffffffffffffffffffffffffffff1681526020019081526020016000206000838152602001908152602001600020805480602002602001604051908101604052809291908181526020018280548015610dab57602002820191906000526020600020905b8160009054906101000a900473ffffffffffffffffffffffffffffffffffffffff1673ffffffffffffffffffffffffffffffffffffffff1681526020019060010190808311610d61575b5050505050905092915050565b60005b8251811015610f11576040518060400160405280601581526020017f4469737061746368656420746f2076657269666572000000000000000000000081525060046000858481518110610e1157610e10611785565b5b602002602001015173ffffffffffffffffffffffffffffffffffffffff1673ffffffffffffffffffffffffffffffffffffffff1681526020019081526020016000206003019081610e629190611960565b508160046000858481518110610e7b57610e7a611785565b5b602002602001015173ffffffffffffffffffffffffffffffffffffffff1673ffffffffffffffffffffffffffffffffffffffff16815260200190815260200160002060050160006101000a81548173ffffffffffffffffffffffffffffffffffffffff021916908373ffffffffffffffffffffffffffffffffffffffff1602179055508080610f0990611a61565b915050610dbb565b5081600260008373ffffffffffffffffffffffffffffffffffffffff1673ffffffffffffffffffffffffffffffffffffffff1681526020019081526020016000206000600660008573ffffffffffffffffffffffffffffffffffffffff1673ffffffffffffffffffffffffffffffffffffffff1681526020019081526020016000205481526020019081526020016000209080519060200190610fb5929190611041565b506001600660008373ffffffffffffffffffffffffffffffffffffffff1673ffffffffffffffffffffffffffffffffffffffff16815260200190815260200160002060008282546110069190611aa9565b925050819055505050565b60056020528060005260406000206000915090505481565b60066020528060005260406000206000915090505481565b8280548282559060005260206000209081019282156110ba579160200282015b828111156110b95782518260006101000a81548173ffffffffffffffffffffffffffffffffffffffff021916908373ffffffffffffffffffffffffffffffffffffffff16021790555091602001919060010190611061565b5b5090506110c791906110cb565b5090565b5b808211156110e45760008160009055506001016110cc565b5090565b6000604051905090565b600080fd5b600080fd5b600073ffffffffffffffffffffffffffffffffffffffff82169050919050565b6000611127826110fc565b9050919050565b6111378161111c565b811461114257600080fd5b50565b6000813590506111548161112e565b92915050565b6000602082840312156111705761116f6110f2565b5b600061117e84828501611145565b91505092915050565b60008115159050919050565b61119c81611187565b82525050565b600081519050919050565b600082825260208201905092915050565b60005b838110156111dc5780820151818401526020810190506111c1565b60008484015250505050565b6000601f19601f8301169050919050565b6000611204826111a2565b61120e81856111ad565b935061121e8185602086016111be565b611227816111e8565b840191505092915050565b61123b8161111c565b82525050565b600061010082019050611257600083018b611193565b8181036020830152611269818a6111f9565b9050818103604083015261127d81896111f9565b9050818103606083015261129181886111f9565b90506112a06080830187611193565b6112ad60a0830186611232565b6112ba60c0830185611232565b6112c760e0830184611232565b9998505050505050505050565b600081519050919050565b600082825260208201905092915050565b6000819050602082019050919050565b6113098161111c565b82525050565b600061131b8383611300565b60208301905092915050565b6000602082019050919050565b600061133f826112d4565b61134981856112df565b9350611354836112f0565b8060005b8381101561138557815161136c888261130f565b975061137783611327565b925050600181019050611358565b5085935050505092915050565b600060208201905081810360008301526113ac8184611334565b905092915050565b6000819050919050565b6113c7816113b4565b81146113d257600080fd5b50565b6000813590506113e4816113be565b92915050565b60008060408385031215611401576114006110f2565b5b600061140f85828601611145565b9250506020611420858286016113d5565b9150509250929050565b600080fd5b7f4e487b7100000000000000000000000000000000000000000000000000000000600052604160045260246000fd5b611467826111e8565b810181811067ffffffffffffffff821117156114865761148561142f565b5b80604052505050565b60006114996110e8565b90506114a5828261145e565b919050565b600067ffffffffffffffff8211156114c5576114c461142f565b5b602082029050602081019050919050565b600080fd5b60006114ee6114e9846114aa565b61148f565b90508083825260208201905060208402830185811115611511576115106114d6565b5b835b8181101561153a57806115268882611145565b845260208401935050602081019050611513565b5050509392505050565b600082601f8301126115595761155861142a565b5b81356115698482602086016114db565b91505092915050565b60008060408385031215611589576115886110f2565b5b600083013567ffffffffffffffff8111156115a7576115a66110f7565b5b6115b385828601611544565b92505060206115c485828601611145565b9150509250929050565b600080fd5b600067ffffffffffffffff8211156115ee576115ed61142f565b5b6115f7826111e8565b9050602081019050919050565b82818337600083830152505050565b6000611626611621846115d3565b61148f565b905082815260208101848484011115611642576116416115ce565b5b61164d848285611604565b509392505050565b600082601f83011261166a5761166961142a565b5b813561167a848260208601611613565b91505092915050565b6000806040838503121561169a576116996110f2565b5b600083013567ffffffffffffffff8111156116b8576116b76110f7565b5b6116c485828601611655565b925050602083013567ffffffffffffffff8111156116e5576116e46110f7565b5b6116f185828601611655565b9150509250929050565b611704816113b4565b82525050565b600060208201905061171f60008301846116fb565b92915050565b7f4e487b7100000000000000000000000000000000000000000000000000000000600052602260045260246000fd5b6000600282049050600182168061176c57607f821691505b60208210810361177f5761177e611725565b5b50919050565b7f4e487b7100000000000000000000000000000000000000000000000000000000600052603260045260246000fd5b60008190508160005260206000209050919050565b60006020601f8301049050919050565b600082821b905092915050565b6000600883026118167fffffffffffffffffffffffffffffffffffffffffffffffffffffffffffffffff826117d9565b61182086836117d9565b95508019841693508086168417925050509392505050565b6000819050919050565b600061185d611858611853846113b4565b611838565b6113b4565b9050919050565b6000819050919050565b61187783611842565b61188b61188382611864565b8484546117e6565b825550505050565b600090565b6118a0611893565b6118ab81848461186e565b505050565b5b818110156118cf576118c4600082611898565b6001810190506118b1565b5050565b601f821115611914576118e5816117b4565b6118ee846117c9565b810160208510156118fd578190505b611911611909856117c9565b8301826118b0565b50505b505050565b600082821c905092915050565b600061193760001984600802611919565b1980831691505092915050565b60006119508383611926565b9150826002028217905092915050565b611969826111a2565b67ffffffffffffffff8111156119825761198161142f565b5b61198c8254611754565b6119978282856118d3565b600060209050601f8311600181146119ca57600084156119b8578287015190505b6119c28582611944565b865550611a2a565b601f1984166119d8866117b4565b60005b82811015611a00578489015182556001820191506020850194506020810190506119db565b86831015611a1d5784890151611a19601f891682611926565b8355505b6001600288020188555050505b505050505050565b7f4e487b7100000000000000000000000000000000000000000000000000000000600052601160045260246000fd5b6000611a6c826113b4565b91507fffffffffffffffffffffffffffffffffffffffffffffffffffffffffffffffff8203611a9e57611a9d611a32565b5b600182019050919050565b6000611ab4826113b4565b9150611abf836113b4565b9250828201905080821115611ad757611ad6611a32565b5b92915050565b60008160601b9050919050565b6000611af582611add565b9050919050565b6000611b0782611aea565b9050919050565b611b1f611b1a8261111c565b611afc565b82525050565b6000819050919050565b611b40611b3b826113b4565b611b25565b82525050565b6000611b528285611b0e565b601482019150611b628284611b2f565b6020820191508190509392505050565b600081519050919050565b600081905092915050565b6000611b9382611b72565b611b9d8185611b7d565b9350611bad8185602086016111be565b80840191505092915050565b6000611bc58284611b88565b915081905092915050565b6000819050919050565b611be381611bd0565b8114611bee57600080fd5b50565b600081519050611c0081611bda565b92915050565b600060208284031215611c1c57611c1b6110f2565b5b6000611c2a84828501611bf1565b9150509291505056fea264697066735822122043bbb66fb199d86cf4a7994ebef68032e1ae3a043bd2cbea777b444daedb3ed464736f6c63430008130033",
  "immutableReferences": {},
  "source": "// SPDX-License-Identifier: GPL-3.0\n\npragma solidity >=0.7.0 <0.9.0;\n\ncontract DrugVerify {\n    struct drug {\n        bool drug_id;\n        string drug_name;\n        string drug_info_json;\n        string drug_status;\n        // string drug_current_location;\n        bool isSold;\n        address manfacturer;\n        address distributer;\n        address verifier;\n    }\n    //[1,3, 4] , [5, 8, 11]-> [[1, 3, 4],[5, 8, 11]]\n    mapping(address => address[]) manufacturer_drugs;  // List of manufacturer's drug\n    mapping(address => mapping(uint => address[])) distributer_drugs;  // List of distributer's drug\n    mapping(address => mapping(uint => address[])) verifier_drugs;  // List of verifier's drug\n    mapping(address => mapping(string => string)) timestamp;\n    mapping(address => drug) public drugs;  // List of drugs deployed into blockchain\n    mapping(address => uint) public no_dis_drugs_index;\n    mapping(address => uint)public no_verifier_drugs_index;\n    // uint public no_dis_drugs_index = 0;\n    // uint public no_verifier_drugs_index = 0;\n\n    // New Drug addition into blockchain\n    function addDrug(string memory name, string memory info_json) public {\n        address uniqueId = address(bytes20(sha256(abi.encodePacked(msg.sender,block.timestamp))));\n        \n        drugs[uniqueId].drug_id = true;\n        drugs[uniqueId].drug_name = name;\n        drugs[uniqueId].drug_info_json = info_json;\n        drugs[uniqueId].drug_status = \"Manufactured\";\n        drugs[uniqueId].isSold = false;\n        drugs[uniqueId].manfacturer = msg.sender;\n        drugs[uniqueId].distributer = 0x0000000000000000000000000000000000000000;\n        drugs[uniqueId].verifier = 0x0000000000000000000000000000000000000000;\n        manufacturer_drugs[msg.sender].push(uniqueId);\n    }\n\n    // Returns drug list of manufacturer(msg.sender)\n    function ManufacturerDrugsList() public view returns (address[] memory) {\n        return manufacturer_drugs[msg.sender];\n    }\n\n    // Assign drug ids to a particular distributer\n    function drugDispatchToDistributer(address[] memory drug_ids, address _distributer) public {\n        for(uint i=0; i<drug_ids.length; i++)\n        {\n            drugs[drug_ids[i]].drug_status = \"Dispatched to distributer\";\n            drugs[drug_ids[i]].distributer = _distributer;\n            // distributer_drugs[_distributer].push(drug_ids[i]);\n        }\n        distributer_drugs[_distributer][no_dis_drugs_index[_distributer]] = drug_ids;\n        no_dis_drugs_index[_distributer]+=1;\n        \n    }\n    function getDistributerDrugsAddressesList(address _distributer, uint index) public view returns(address[] memory) {\n        return distributer_drugs[_distributer][index];\n    }\n\n    // function getDistributerDrugsList(address _distributer, uint index) public view returns(drug[] memory) {\n    //     drug[] memory tempDrugs;\n    //     uint inc = 0;\n    //     for(uint i=0; i<distributer_drugs[_distributer][index].length; i++)\n    //     {\n    //         tempDrugs[inc] = drugs[distributer_drugs[_distributer][index][i]];\n    //         inc++;\n    //     }\n    //     return tempDrugs;\n    // }\n\n\n    function drugDispatchToVerifier(address[] memory drug_ids, address _verifier) public {\n        for(uint i=0; i<drug_ids.length; i++)\n        {\n            drugs[drug_ids[i]].drug_status = \"Dispatched to verifer\";\n            drugs[drug_ids[i]].distributer = _verifier;\n            // verifier_drugs[_verifier].push(drug_ids[i]);\n        }\n        verifier_drugs[_verifier][no_verifier_drugs_index[_verifier]] = drug_ids;\n        no_verifier_drugs_index[_verifier]+=1;\n    }\n    function getVerifierDrugAddressesList(address _verifier, uint index) public view returns(address[] memory) {\n        return verifier_drugs[_verifier][index];\n    }\n}",
  "sourcePath": "/Users/satyamagrawal/Desktop/Satyam/smartContractApps/blockchain-code/blockchain-node-api/contracts/drugVerify.sol",
  "compiler": {
    "name": "solc",
    "version": "0.8.19+commit.7dd6d404.Emscripten.clang"
  },
  "schemaVersion": "3.4.12",
  "updatedAt": "2023-02-26T15:24:03.752Z",
  "networkType": "ethereum",
  "devdoc": {
    "kind": "dev",
    "methods": {},
    "version": 1
  },
  "userdoc": {
    "kind": "user",
    "methods": {},
    "version": 1
  }
}